11:42:04.766656 IP BP-Linux8.ssh > 192.168.190.130.50019: Flags [P.], seq 2243505564:2243505672, ack 1972915080, win 312, options [nop,nop,TS val 102917262 ecr 377952805], length 108
	0x0000:  4512 00a0 ed8e 4000 4006 99c5 c0a8 731e
	0x0010:  c0a8 be82 0016 c363 85b9 2d9c 7598 4b88
	0x0020:  8018 0138 b384 0000 0101 080a 0622 648e
	0x0030:  1687 1a25 ae15 ed2e 0c2f 724d ce51 edd7
	0x0040:  7d02 fe64 9fe0 4a61 9f85 9b92 25bd 5d15
	0x0050:  3f8a c2ce 11b4 31b1 a9ce 379e a9e1 a0f6
	0x0060:  770c 9e91 fba6 f9b6 9a66 6776 b1ac ceb7
	0x0070:  de8b ae6c cd01 6ab9 ec07 836d 3e04 8404
	0x0080:  f841 fc74 fc9f 4070 a9e0 2021 ecff 230a
	0x0090:  3839 d986 d960 3ae4 768b d58b 8042 546f
11:42:04.766694 IP BP-Linux8.ssh > 192.168.190.130.50019: Flags [P.], seq 108:144, ack 1, win 312, options [nop,nop,TS val 102917262 ecr 377952805], length 36
	0x0000:  4512 0058 ed8f 4000 4006 9a0c c0a8 731e
	0x0010:  c0a8 be82 0016 c363 85b9 2e08 7598 4b88
	0x0020:  8018 0138 b33c 0000 0101 080a 0622 648e
	0x0030:  1687 1a25 7542 8c6a 4716 b8b1 814a a832
	0x0040:  1ffd 18e5 a520 f808 5b8e beac 19b7 4796
	0x0050:  8bdc 9155 ee2a d6b3
11:42:04.766723 IP BP-Linux8.ssh > 192.168.190.130.50019: Flags [P.], seq 144:252, ack 1, win 312, options [nop,nop,TS val 102917262 ecr 377952805], length 108
	0x0000:  4512 00a0 ed90 4000 4006 99c3 c0a8 731e
	0x0010:  c0a8 be82 0016 c363 85b9 2e2c 7598 4b88
	0x0020:  8018 0138 b384 0000 0101 080a 0622 648e
	0x0030:  1687 1a25 d509 725b 22b9 f3ea 425a 9a86
	0x0040:  6237 27c1 e44c 90d8 f41a 0379 9244 9974
	0x0050:  a96d c4db c22d a980 f551 d0ad 645a 9a07
	0x0060:  a058 b9fd dfd1 9eed 1200 6e1d 5006 e57d
	0x0070:  0f4a e594 88ad fc35 b000 73be 4a0a 3c01
	0x0080:  4377 aec1 409a 9655 ef7e a495 7b54 a3ef
	0x0090:  70ff ef58 54c6 fe50 0b48 74d4 eea8 5218
11:42:04.766744 IP BP-Linux8.ssh > 192.168.190.130.50019: Flags [P.], seq 252:288, ack 1, win 312, options [nop,nop,TS val 102917262 ecr 377952805], length 36
	0x0000:  4512 0058 ed91 4000 4006 9a0a c0a8 731e
	0x0010:  c0a8 be82 0016 c363 85b9 2e98 7598 4b88
	0x0020:  8018 0138 b33c 0000 0101 080a 0622 648e
	0x0030:  1687 1a25 762c a5f3 a57f 03d2 b4e8 ea21
	0x0040:  0e92 71fb f4eb 1c74 b6c8 277d bfef 0b4a
	0x0050:  2678 46b9 82e9 b470
11:42:04.785366 IP 192.168.190.130.50019 > BP-Linux8.ssh: Flags [.], ack 108, win 7319, options [nop,nop,TS val 377953205 ecr 102917262], length 0
	0x0000:  4548 0034 0000 4000 3f06 888a c0a8 be82
	0x0010:  c0a8 731e c363 0016 7598 4b88 85b9 2e08
	0x0020:  8010 1c97 d1eb 0000 0101 080a 1687 1bb5
	0x0030:  0622 648e
11:42:04.785384 IP 192.168.190.130.50019 > BP-Linux8.ssh: Flags [.], ack 144, win 7318, options [nop,nop,TS val 377953205 ecr 102917262], length 0
	0x0000:  4548 0034 0000 4000 3f06 888a c0a8 be82
	0x0010:  c0a8 731e c363 0016 7598 4b88 85b9 2e2c
	0x0020:  8010 1c96 d1c8 0000 0101 080a 1687 1bb5
	0x0030:  0622 648e
11:42:04.785406 IP 192.168.190.130.50019 > BP-Linux8.ssh: Flags [.], ack 252, win 7316, options [nop,nop,TS val 377953205 ecr 102917262], length 0
	0x0000:  4548 0034 0000 4000 3f06 888a c0a8 be82
	0x0010:  c0a8 731e c363 0016 7598 4b88 85b9 2e98
	0x0020:  8010 1c94 d15e 0000 0101 080a 1687 1bb5
	0x0030:  0622 648e
11:42:04.785454 IP 192.168.190.130.50019 > BP-Linux8.ssh: Flags [.], ack 288, win 7320, options [nop,nop,TS val 377953205 ecr 102917262], length 0
	0x0000:  4548 0034 0000 4000 3f06 888a c0a8 be82
	0x0010:  c0a8 731e c363 0016 7598 4b88 85b9 2ebc
	0x0020:  8010 1c98 d136 0000 0101 080a 1687 1bb5
	0x0030:  0622 648e
11:42:05.768334 IP BP-Linux8.58466 > ns1.lan.rt.domain: 16550+ PTR? 130.190.168.192.in-addr.arpa. (46)
	0x0000:  4500 004a 852f 4000 4011 7ca6 c0a8 731e
	0x0010:  0afa fa0c e462 0035 0036 3915 40a6 0100
	0x0020:  0001 0000 0000 0000 0331 3330 0331 3930
	0x0030:  0331 3638 0331 3932 0769 6e2d 6164 6472
	0x0040:  0461 7270 6100 000c 0001
11:42:05.769075 IP ns1.lan.rt.domain > BP-Linux8.58466: 16550 NXDomain 0/1/0 (112)
	0x0000:  4500 008c 5aee 0000 7f11 a7a5 0afa fa0c
	0x0010:  c0a8 731e 0035 e462 0078 d28a 40a6 8183
	0x0020:  0001 0000 0001 0000 0331 3330 0331 3930
	0x0030:  0331 3638 0331 3932 0769 6e2d 6164 6472
	0x0040:  0461 7270 6100 000c 0001 c014 0006 0001
	0x0050:  0000 00e0 0036 0673 7472 6f70 680f 756e
	0x0060:  6976 2d73 742d 6574 6965 6e6e 6502 6672
	0x0070:  0004 726f 6f74 c041 7877 ddde 0000 5460
	0x0080:  0000 0e10 000d 2f00 0000 2a30
11:42:06.669393 IP 192.168.190.130.50245 > BP-Linux8.ssh: Flags [P.], seq 1601828178:1601828214, ack 1851233244, win 2048, options [nop,nop,TS val 377955086 ecr 102913805], length 36
	0x0000:  454a 0058 0000 4000 3f06 8864 c0a8 be82
	0x0010:  c0a8 731e c445 0016 5f79 f552 6e57 93dc
	0x0020:  8018 0800 75e1 0000 0101 080a 1687 230e
	0x0030:  0622 570d c167 b0ba c172 db7a 1e38 e40f
	0x0040:  0a94 fd3c 2f13 9192 051b c1d3 9f72 c960
	0x0050:  033f 2d17 be1e 9b97
11:42:06.669906 IP BP-Linux8.ssh > 192.168.190.130.50245: Flags [P.], seq 1:37, ack 36, win 291, options [nop,nop,TS val 102917738 ecr 377955086], length 36
	0x0000:  4512 0058 0ec3 4000 4006 78d9 c0a8 731e
	0x0010:  c0a8 be82 0016 c445 6e57 93dc 5f79 f576
	0x0020:  8018 0123 b33c 0000 0101 080a 0622 666a
	0x0030:  1687 230e 771a f582 5b1c a09c bc71 d367
	0x0040:  2bdc 6c9b 85f6 7553 3f2f b1ff 7c7e 5c0d
	0x0050:  4b59 befd 5c60 df70
11:42:06.679262 IP BP-Linux8.53220 > ns1.lan.rt.domain: 54801+ A? lacampora.org. (31)
	0x0000:  4500 003b 85ea 4000 4011 7bfa c0a8 731e
	0x0010:  0afa fa0c cfe4 0035 0027 3906 d611 0100
	0x0020:  0001 0000 0000 0000 096c 6163 616d 706f
	0x0030:  7261 036f 7267 0000 0100 01
11:42:06.679971 IP ns1.lan.rt.domain > BP-Linux8.53220: 54801 1/0/0 A 184.107.43.74 (47)
	0x0000:  4500 004b 5aef 0000 7f11 a7e5 0afa fa0c
	0x0010:  c0a8 731e 0035 cfe4 0037 b579 d611 8180
	0x0020:  0001 0001 0000 0000 096c 6163 616d 706f
	0x0030:  7261 036f 7267 0000 0100 01c0 0c00 0100
	0x0040:  0100 0002 fa00 04b8 6b2b 4a
11:42:06.681188 IP BP-Linux8.ssh > 192.168.190.130.50245: Flags [P.], seq 37:153, ack 36, win 291, options [nop,nop,TS val 102917741 ecr 377955086], length 116
	0x0000:  4512 00a8 0ec4 4000 4006 7888 c0a8 731e
	0x0010:  c0a8 be82 0016 c445 6e57 9400 5f79 f576
	0x0020:  8018 0123 b38c 0000 0101 080a 0622 666d
	0x0030:  1687 230e 8e58 97e7 c03f 84dc 29f0 fb1a
	0x0040:  1e6f e655 0adf d185 de4c a1c2 f55e d73e
	0x0050:  eba2 4cd6 fdf6 244c 2f89 b755 8ada 3c64
	0x0060:  90d8 0c88 e966 5e86 2441 d155 4547 8013
	0x0070:  441d 5f4f 25fe 3b01 5528 14cf 091c c89b
	0x0080:  6f59 75d4 6935 69f4 2a60 6685 93c5 54ce
	0x0090:  5844 292a e4b5 437a e65f 3f18 7cd0 2e14
	0x00a0:  1154 c87e 2768 110d
11:42:06.681222 IP BP-Linux8.ssh > 192.168.190.130.50245: Flags [P.], seq 153:189, ack 36, win 291, options [nop,nop,TS val 102917741 ecr 377955086], length 36
	0x0000:  4512 0058 0ec5 4000 4006 78d7 c0a8 731e
	0x0010:  c0a8 be82 0016 c445 6e57 9474 5f79 f576
	0x0020:  8018 0123 b33c 0000 0101 080a 0622 666d
	0x0030:  1687 230e 79e6 850e f616 0a08 40a4 bc58
	0x0040:  85cf d091 f353 94cc 6096 4d49 0300 6f7c
	0x0050:  a247 3c9c c15d 1435
11:42:06.681248 IP 190-0-175-100.gba.solunet.com.ar.2465 > 184.107.43.74.http: Flags [S], seq 326991629:326991749, win 512, length 120: HTTP
	0x0000:  4500 00a0 b570 0000 4006 73cd be00 af64
	0x0010:  b86b 2b4a 09a1 0050 137d 7f0d 4c58 ccca
	0x0020:  5002 0200 f1fc 0000 5858 5858 5858 5858
	0x0030:  5858 5858 5858 5858 5858 5858 5858 5858
	0x0040:  5858 5858 5858 5858 5858 5858 5858 5858
	0x0050:  5858 5858 5858 5858 5858 5858 5858 5858
	0x0060:  5858 5858 5858 5858 5858 5858 5858 5858
	0x0070:  5858 5858 5858 5858 5858 5858 5858 5858
	0x0080:  5858 5858 5858 5858 5858 5858 5858 5858
	0x0090:  5858 5858 5858 5858 5858 5858 5858 5858
11:42:06.681274 IP 190-0-175-100.gba.solunet.com.ar.2466 > 184.107.43.74.http: Flags [S], seq 920517760:920517880, win 512, length 120: HTTP
	0x0000:  4500 00a0 2b46 0000 4006 fdf7 be00 af64
	0x0010:  b86b 2b4a 09a2 0050 36dd fc80 7663 b048
	0x0020:  5002 0200 439f 0000 5858 5858 5858 5858
	0x0030:  5858 5858 5858 5858 5858 5858 5858 5858
	0x0040:  5858 5858 5858 5858 5858 5858 5858 5858
	0x0050:  5858 5858 5858 5858 5858 5858 5858 5858
	0x0060:  5858 5858 5858 5858 5858 5858 5858 5858
	0x0070:  5858 5858 5858 5858 5858 5858 5858 5858
	0x0080:  5858 5858 5858 5858 5858 5858 5858 5858
	0x0090:  5858 5858 5858 5858 5858 5858 5858 5858
11:42:06.681294 IP 190-0-175-100.gba.solunet.com.ar.2467 > 184.107.43.74.http: Flags [S], seq 556803824:556803944, win 512, length 120: HTTP
	0x0000:  4500 00a0 e7a0 0000 4006 419d be00 af64
	0x0010:  b86b 2b4a 09a3 0050 2130 26f0 40d8 014f
	0x0020:  5002 0200 1361 0000 5858 5858 5858 5858
	0x0030:  5858 5858 5858 5858 5858 5858 5858 5858
	0x0040:  5858 5858 5858 5858 5858 5858 5858 5858
	0x0050:  5858 5858 5858 5858 5858 5858 5858 5858
	0x0060:  5858 5858 5858 5858 5858 5858 5858 5858
	0x0070:  5858 5858 5858 5858 5858 5858 5858 5858
	0x0080:  5858 5858 5858 5858 5858 5858 5858 5858
	0x0090:  5858 5858 5858 5858 5858 5858 5858 5858
11:42:06.681312 IP 190-0-175-100.gba.solunet.com.ar.2468 > 184.107.43.74.http: Flags [S], seq 1921632185:1921632305, win 512, length 120: HTTP
	0x0000:  4500 00a0 c251 0000 4006 66ec be00 af64
	0x0010:  b86b 2b4a 09a4 0050 7289 c7b9 1ab1 f5a8
	0x0020:  5002 0200 530a 0000 5858 5858 5858 5858
	0x0030:  5858 5858 5858 5858 5858 5858 5858 5858
	0x0040:  5858 5858 5858 5858 5858 5858 5858 5858
	0x0050:  5858 5858 5858 5858 5858 5858 5858 5858
	0x0060:  5858 5858 5858 5858 5858 5858 5858 5858
	0x0070:  5858 5858 5858 5858 5858 5858 5858 5858
	0x0080:  5858 5858 5858 5858 5858 5858 5858 5858
	0x0090:  5858 5858 5858 5858 5858 5858 5858 5858
11:42:06.681328 IP 190-0-175-100.gba.solunet.com.ar.2469 > 184.107.43.74.http: Flags [S], seq 1170972654:1170972774, win 512, length 120: HTTP
	0x0000:  4500 00a0 14ea 0000 4006 1454 be00 af64
	0x0010:  b86b 2b4a 09a5 0050 45cb 9fee 5f03 4a85
	0x0020:  5002 0200 0e64 0000 5858 5858 5858 5858
	0x0030:  5858 5858 5858 5858 5858 5858 5858 5858
	0x0040:  5858 5858 5858 5858 5858 5858 5858 5858
	0x0050:  5858 5858 5858 5858 5858 5858 5858 5858
	0x0060:  5858 5858 5858 5858 5858 5858 5858 5858
	0x0070:  5858 5858 5858 5858 5858 5858 5858 5858
	0x0080:  5858 5858 5858 5858 5858 5858 5858 5858
	0x0090:  5858 5858 5858 5858 5858 5858 5858 5858
11:42:06.681345 IP 190-0-175-100.gba.solunet.com.ar.2470 > 184.107.43.74.http: Flags [S], seq 754504426:754504546, win 512, length 120: HTTP
	0x0000:  4500 00a0 6704 0000 4006 c239 be00 af64
	0x0010:  b86b 2b4a 09a6 0050 2cf8 d2ea 2920 6c03
	0x0020:  5002 0200 089f 0000 5858 5858 5858 5858
	0x0030:  5858 5858 5858 5858 5858 5858 5858 5858
	0x0040:  5858 5858 5858 5858 5858 5858 5858 5858
	0x0050:  5858 5858 5858 5858 5858 5858 5858 5858
	0x0060:  5858 5858 5858 5858 5858 5858 5858 5858
	0x0070:  5858 5858 5858 5858 5858 5858 5858 5858
	0x0080:  5858 5858 5858 5858 5858 5858 5858 5858
	0x0090:  5858 5858 5858 5858 5858 5858 5858 5858
11:42:06.681362 IP 190-0-175-100.gba.solunet.com.ar.2471 > 184.107.43.74.http: Flags [S], seq 669863147:669863267, win 512, length 120: HTTP
	0x0000:  4500 00a0 68ad 0000 4006 c090 be00 af64
	0x0010:  b86b 2b4a 09a7 0050 27ed 4ceb 7bbb d761
	0x0020:  5002 0200 d5ae 0000 5858 5858 5858 5858
	0x0030:  5858 5858 5858 5858 5858 5858 5858 5858
	0x0040:  5858 5858 5858 5858 5858 5858 5858 5858
	0x0050:  5858 5858 5858 5858 5858 5858 5858 5858
	0x0060:  5858 5858 5858 5858 5858 5858 5858 5858
	0x0070:  5858 5858 5858 5858 5858 5858 5858 5858
	0x0080:  5858 5858 5858 5858 5858 5858 5858 5858
	0x0090:  5858 5858 5858 5858 5858 5858 5858 5858
11:42:06.681379 IP 190-0-175-100.gba.solunet.com.ar.2472 > 184.107.43.74.http: Flags [S], seq 1036593434:1036593554, win 512, length 120: HTTP
	0x0000:  4500 00a0 7d46 0000 4006 abf7 be00 af64
	0x0010:  b86b 2b4a 09a8 0050 3dc9 291a 6680 785b
	0x0020:  5002 0200 57e4 0000 5858 5858 5858 5858
	0x0030:  5858 5858 5858 5858 5858 5858 5858 5858
	0x0040:  5858 5858 5858 5858 5858 5858 5858 5858
	0x0050:  5858 5858 5858 5858 5858 5858 5858 5858
	0x0060:  5858 5858 5858 5858 5858 5858 5858 5858
	0x0070:  5858 5858 5858 5858 5858 5858 5858 5858
	0x0080:  5858 5858 5858 5858 5858 5858 5858 5858
	0x0090:  5858 5858 5858 5858 5858 5858 5858 5858
11:42:06.681396 IP 190-0-175-100.gba.solunet.com.ar.2473 > 184.107.43.74.http: Flags [S], seq 473640609:473640729, win 512, length 120: HTTP
	0x0000:  4500 00a0 5c9f 0000 4006 cc9e be00 af64
	0x0010:  b86b 2b4a 09a9 0050 1c3b 2ea1 0a63 3fd0
	0x0020:  5002 0200 0893 0000 5858 5858 5858 5858
	0x0030:  5858 5858 5858 5858 5858 5858 5858 5858
	0x0040:  5858 5858 5858 5858 5858 5858 5858 5858
	0x0050:  5858 5858 5858 5858 5858 5858 5858 5858
	0x0060:  5858 5858 5858 5858 5858 5858 5858 5858
	0x0070:  5858 5858 5858 5858 5858 5858 5858 5858
	0x0080:  5858 5858 5858 5858 5858 5858 5858 5858
	0x0090:  5858 5858 5858 5858 5858 5858 5858 5858
11:42:06.681413 IP 190-0-175-100.gba.solunet.com.ar.2474 > 184.107.43.74.http: Flags [S], seq 294639309:294639429, win 512, length 120: HTTP
	0x0000:  4500 00a0 dfd3 0000 4006 496a be00 af64
	0x0010:  b86b 2b4a 09aa 0050 118f d6cd 4c12 16f3
	0x0020:  5002 0200 523f 0000 5858 5858 5858 5858
	0x0030:  5858 5858 5858 5858 5858 5858 5858 5858
	0x0040:  5858 5858 5858 5858 5858 5858 5858 5858
	0x0050:  5858 5858 5858 5858 5858 5858 5858 5858
	0x0060:  5858 5858 5858 5858 5858 5858 5858 5858
	0x0070:  5858 5858 5858 5858 5858 5858 5858 5858
	0x0080:  5858 5858 5858 5858 5858 5858 5858 5858
	0x0090:  5858 5858 5858 5858 5858 5858 5858 5858
11:42:06.681430 IP 190-0-175-100.gba.solunet.com.ar.2475 > 184.107.43.74.http: Flags [S], seq 2003734750:2003734870, win 512, length 120: HTTP
	0x0000:  4500 00a0 ac9d 0000 4006 7ca0 be00 af64
	0x0010:  b86b 2b4a 09ab 0050 776e 90de 5f8f 9600
	0x0020:  5002 0200 9fc3 0000 5858 5858 5858 5858
	0x0030:  5858 5858 5858 5858 5858 5858 5858 5858
	0x0040:  5858 5858 5858 5858 5858 5858 5858 5858
	0x0050:  5858 5858 5858 5858 5858 5858 5858 5858
	0x0060:  5858 5858 5858 5858 5858 5858 5858 5858
	0x0070:  5858 5858 5858 5858 5858 5858 5858 5858
	0x0080:  5858 5858 5858 5858 5858 5858 5858 5858
	0x0090:  5858 5858 5858 5858 5858 5858 5858 5858
11:42:06.681446 IP 190-0-175-100.gba.solunet.com.ar.2476 > 184.107.43.74.http: Flags [S], seq 943277646:943277766, win 512, length 120: HTTP
	0x0000:  4500 00a0 5ce6 0000 4006 cc57 be00 af64
	0x0010:  b86b 2b4a 09ac 0050 3839 464e 166d 9280
	0x0020:  5002 0200 762a 0000 5858 5858 5858 5858
	0x0030:  5858 5858 5858 5858 5858 5858 5858 5858
	0x0040:  5858 5858 5858 5858 5858 5858 5858 5858
	0x0050:  5858 5858 5858 5858 5858 5858 5858 5858
	0x0060:  5858 5858 5858 5858 5858 5858 5858 5858
	0x0070:  5858 5858 5858 5858 5858 5858 5858 5858
	0x0080:  5858 5858 5858 5858 5858 5858 5858 5858
	0x0090:  5858 5858 5858 5858 5858 5858 5858 5858
11:42:06.681463 IP 190-0-175-100.gba.solunet.com.ar.2477 > 184.107.43.74.http: Flags [S], seq 612921749:612921869, win 512, length 120: HTTP
	0x0000:  4500 00a0 5e35 0000 4006 cb08 be00 af64
	0x0010:  b86b 2b4a 09ad 0050 2488 7195 379d b970
	0x0020:  5002 0200 1673 0000 5858 5858 5858 5858
	0x0030:  5858 5858 5858 5858 5858 5858 5858 5858
	0x0040:  5858 5858 5858 5858 5858 5858 5858 5858
	0x0050:  5858 5858 5858 5858 5858 5858 5858 5858
	0x0060:  5858 5858 5858 5858 5858 5858 5858 5858
	0x0070:  5858 5858 5858 5858 5858 5858 5858 5858
	0x0080:  5858 5858 5858 5858 5858 5858 5858 5858
	0x0090:  5858 5858 5858 5858 5858 5858 5858 5858
11:42:06.681480 IP 190-0-175-100.gba.solunet.com.ar.2478 > 184.107.43.74.http: Flags [S], seq 1079269685:1079269805, win 512, length 120: HTTP
	0x0000:  4500 00a0 53dd 0000 4006 d560 be00 af64
	0x0010:  b86b 2b4a 09ae 0050 4054 5935 2a27 8129
	0x0020:  5002 0200 58c3 0000 5858 5858 5858 5858
	0x0030:  5858 5858 5858 5858 5858 5858 5858 5858
	0x0040:  5858 5858 5858 5858 5858 5858 5858 5858
	0x0050:  5858 5858 5858 5858 5858 5858 5858 5858
	0x0060:  5858 5858 5858 5858 5858 5858 5858 5858
	0x0070:  5858 5858 5858 5858 5858 5858 5858 5858
	0x0080:  5858 5858 5858 5858 5858 5858 5858 5858
	0x0090:  5858 5858 5858 5858 5858 5858 5858 5858
11:42:06.681497 IP 190-0-175-100.gba.solunet.com.ar.2479 > 184.107.43.74.http: Flags [S], seq 1427118982:1427119102, win 512, length 120: HTTP
	0x0000:  4500 00a0 9e62 0000 4006 8adb be00 af64
	0x0010:  b86b 2b4a 09af 0050 5510 1b86 6ff3 2117
	0x0020:  5002 0200 9bfb 0000 5858 5858 5858 5858
	0x0030:  5858 5858 5858 5858 5858 5858 5858 5858
	0x0040:  5858 5858 5858 5858 5858 5858 5858 5858
	0x0050:  5858 5858 5858 5858 5858 5858 5858 5858
	0x0060:  5858 5858 5858 5858 5858 5858 5858 5858
	0x0070:  5858 5858 5858 5858 5858 5858 5858 5858
	0x0080:  5858 5858 5858 5858 5858 5858 5858 5858
	0x0090:  5858 5858 5858 5858 5858 5858 5858 5858
11:42:06.681514 IP 190-0-175-100.gba.solunet.com.ar.2480 > 184.107.43.74.http: Flags [S], seq 1481846896:1481847016, win 512, length 120: HTTP
	0x0000:  4500 00a0 0a65 0000 4006 1ed9 be00 af64
	0x0010:  b86b 2b4a 09b0 0050 5853 3070 1ceb f401
	0x0020:  5002 0200 03eb 0000 5858 5858 5858 5858
	0x0030:  5858 5858 5858 5858 5858 5858 5858 5858
	0x0040:  5858 5858 5858 5858 5858 5858 5858 5858
	0x0050:  5858 5858 5858 5858 5858 5858 5858 5858
	0x0060:  5858 5858 5858 5858 5858 5858 5858 5858
	0x0070:  5858 5858 5858 5858 5858 5858 5858 5858
	0x0080:  5858 5858 5858 5858 5858 5858 5858 5858
	0x0090:  5858 5858 5858 5858 5858 5858 5858 5858
11:42:06.681531 IP 190-0-175-100.gba.solunet.com.ar.2481 > 184.107.43.74.http: Flags [S], seq 807245684:807245804, win 512, length 120: HTTP
	0x0000:  4500 00a0 e1c6 0000 4006 4777 be00 af64
	0x0010:  b86b 2b4a 09b1 0050 301d 9774 44d9 40ed
	0x0020:  5002 0200 5042 0000 5858 5858 5858 5858
	0x0030:  5858 5858 5858 5858 5858 5858 5858 5858
	0x0040:  5858 5858 5858 5858 5858 5858 5858 5858
	0x0050:  5858 5858 5858 5858 5858 5858 5858 5858
	0x0060:  5858 5858 5858 5858 5858 5858 5858 5858
	0x0070:  5858 5858 5858 5858 5858 5858 5858 5858
	0x0080:  5858 5858 5858 5858 5858 5858 5858 5858
	0x0090:  5858 5858 5858 5858 5858 5858 5858 5858
11:42:06.681548 IP 190-0-175-100.gba.solunet.com.ar.2482 > 184.107.43.74.http: Flags [S], seq 29032482:29032602, win 512, length 120: HTTP
	0x0000:  4500 00a0 5a22 0000 4006 cf1b be00 af64
	0x0010:  b86b 2b4a 09b2 0050 01bb 0022 02a2 6a07
	0x0020:  5002 0200 2f13 0000 5858 5858 5858 5858
	0x0030:  5858 5858 5858 5858 5858 5858 5858 5858
	0x0040:  5858 5858 5858 5858 5858 5858 5858 5858
	0x0050:  5858 5858 5858 5858 5858 5858 5858 5858
	0x0060:  5858 5858 5858 5858 5858 5858 5858 5858
	0x0070:  5858 5858 5858 5858 5858 5858 5858 5858
	0x0080:  5858 5858 5858 5858 5858 5858 5858 5858
	0x0090:  5858 5858 5858 5858 5858 5858 5858 5858
11:42:06.681564 IP 190-0-175-100.gba.solunet.com.ar.2483 > 184.107.43.74.http: Flags [S], seq 2121432424:2121432544, win 512, length 120: HTTP
	0x0000:  4500 00a0 99f2 0000 4006 8f4b be00 af64
	0x0010:  b86b 2b4a 09b3 0050 7e72 7d68 1edd 98a9
	0x0020:  5002 0200 ea36 0000 5858 5858 5858 5858
	0x0030:  5858 5858 5858 5858 5858 5858 5858 5858
	0x0040:  5858 5858 5858 5858 5858 5858 5858 5858
	0x0050:  5858 5858 5858 5858 5858 5858 5858 5858
	0x0060:  5858 5858 5858 5858 5858 5858 5858 5858
	0x0070:  5858 5858 5858 5858 5858 5858 5858 5858
	0x0080:  5858 5858 5858 5858 5858 5858 5858 5858
	0x0090:  5858 5858 5858 5858 5858 5858 5858 5858
11:42:06.681581 IP 190-0-175-100.gba.solunet.com.ar.2484 > 184.107.43.74.http: Flags [S], seq 266983944:266984064, win 512, length 120: HTTP
	0x0000:  4500 00a0 b0e5 0000 4006 7858 be00 af64
	0x0010:  b86b 2b4a 09b4 0050 0fe9 da08 306d 6f76
	0x0020:  5002 0200 13c2 0000 5858 5858 5858 5858
	0x0030:  5858 5858 5858 5858 5858 5858 5858 5858
	0x0040:  5858 5858 5858 5858 5858 5858 5858 5858
	0x0050:  5858 5858 5858 5858 5858 5858 5858 5858
	0x0060:  5858 5858 5858 5858 5858 5858 5858 5858
	0x0070:  5858 5858 5858 5858 5858 5858 5858 5858
	0x0080:  5858 5858 5858 5858 5858 5858 5858 5858
	0x0090:  5858 5858 5858 5858 5858 5858 5858 5858
11:42:06.681597 IP 190-0-175-100.gba.solunet.com.ar.2485 > 184.107.43.74.http: Flags [S], seq 780253659:780253779, win 512, length 120: HTTP
	0x0000:  4500 00a0 46e5 0000 4006 e258 be00 af64
	0x0010:  b86b 2b4a 09b5 0050 2e81 b9db 27dc 0054
	0x0020:  5002 0200 8d09 0000 5858 5858 5858 5858
	0x0030:  5858 5858 5858 5858 5858 5858 5858 5858
	0x0040:  5858 5858 5858 5858 5858 5858 5858 5858
	0x0050:  5858 5858 5858 5858 5858 5858 5858 5858
	0x0060:  5858 5858 5858 5858 5858 5858 5858 5858
	0x0070:  5858 5858 5858 5858 5858 5858 5858 5858
	0x0080:  5858 5858 5858 5858 5858 5858 5858 5858
	0x0090:  5858 5858 5858 5858 5858 5858 5858 5858
11:42:06.681614 IP 190-0-175-100.gba.solunet.com.ar.2486 > 184.107.43.74.http: Flags [S], seq 426927737:426927857, win 512, length 120: HTTP
	0x0000:  4500 00a0 d965 0000 4006 4fd8 be00 af64
	0x0010:  b86b 2b4a 09b6 0050 1972 6679 6015 46a3
	0x0020:  5002 0200 76f1 0000 5858 5858 5858 5858
	0x0030:  5858 5858 5858 5858 5858 5858 5858 5858
	0x0040:  5858 5858 5858 5858 5858 5858 5858 5858
	0x0050:  5858 5858 5858 5858 5858 5858 5858 5858
	0x0060:  5858 5858 5858 5858 5858 5858 5858 5858
	0x0070:  5858 5858 5858 5858 5858 5858 5858 5858
	0x0080:  5858 5858 5858 5858 5858 5858 5858 5858
	0x0090:  5858 5858 5858 5858 5858 5858 5858 5858
11:42:06.681630 IP 190-0-175-100.gba.solunet.com.ar.2487 > 184.107.43.74.http: Flags [S], seq 2059846495:2059846615, win 512, length 120: HTTP
	0x0000:  4500 00a0 92d5 0000 4006 9668 be00 af64
	0x0010:  b86b 2b4a 09b7 0050 7ac6 c35f 049d b838
	0x0020:  5002 0200 a298 0000 5858 5858 5858 5858
	0x0030:  5858 5858 5858 5858 5858 5858 5858 5858
	0x0040:  5858 5858 5858 5858 5858 5858 5858 5858
	0x0050:  5858 5858 5858 5858 5858 5858 5858 5858
	0x0060:  5858 5858 5858 5858 5858 5858 5858 5858
	0x0070:  5858 5858 5858 5858 5858 5858 5858 5858
	0x0080:  5858 5858 5858 5858 5858 5858 5858 5858
	0x0090:  5858 5858 5858 5858 5858 5858 5858 5858
11:42:06.681647 IP 190-0-175-100.gba.solunet.com.ar.2488 > 184.107.43.74.http: Flags [S], seq 485695892:485696012, win 512, length 120: HTTP
	0x0000:  4500 00a0 13ff 0000 4006 153f be00 af64
	0x0010:  b86b 2b4a 09b8 0050 1cf3 2194 44f2 116d
	0x0020:  5002 0200 08ad 0000 5858 5858 5858 5858
	0x0030:  5858 5858 5858 5858 5858 5858 5858 5858
	0x0040:  5858 5858 5858 5858 5858 5858 5858 5858
	0x0050:  5858 5858 5858 5858 5858 5858 5858 5858
	0x0060:  5858 5858 5858 5858 5858 5858 5858 5858
	0x0070:  5858 5858 5858 5858 5858 5858 5858 5858
	0x0080:  5858 5858 5858 5858 5858 5858 5858 5858
	0x0090:  5858 5858 5858 5858 5858 5858 5858 5858
11:42:06.681664 IP 190-0-175-100.gba.solunet.com.ar.2489 > 184.107.43.74.http: Flags [S], seq 1506899314:1506899434, win 512, length 120: HTTP
	0x0000:  4500 00a0 3516 0000 4006 f427 be00 af64
	0x0010:  b86b 2b4a 09b9 0050 59d1 7572 1a02 2cf3
	0x0020:  5002 0200 8759 0000 5858 5858 5858 5858
	0x0030:  5858 5858 5858 5858 5858 5858 5858 5858
	0x0040:  5858 5858 5858 5858 5858 5858 5858 5858
	0x0050:  5858 5858 5858 5858 5858 5858 5858 5858
	0x0060:  5858 5858 5858 5858 5858 5858 5858 5858
	0x0070:  5858 5858 5858 5858 5858 5858 5858 5858
	0x0080:  5858 5858 5858 5858 5858 5858 5858 5858
	0x0090:  5858 5858 5858 5858 5858 5858 5858 5858
11:42:06.681681 IP 190-0-175-100.gba.solunet.com.ar.2490 > 184.107.43.74.http: Flags [S], seq 1974670292:1974670412, win 512, length 120: HTTP
	0x0000:  4500 00a0 2918 0000 4006 0026 be00 af64
	0x0010:  b86b 2b4a 09ba 0050 75b3 13d4 7255 5d63
	0x0020:  5002 0200 4451 0000 5858 5858 5858 5858
	0x0030:  5858 5858 5858 5858 5858 5858 5858 5858
	0x0040:  5858 5858 5858 5858 5858 5858 5858 5858
	0x0050:  5858 5858 5858 5858 5858 5858 5858 5858
	0x0060:  5858 5858 5858 5858 5858 5858 5858 5858
	0x0070:  5858 5858 5858 5858 5858 5858 5858 5858
	0x0080:  5858 5858 5858 5858 5858 5858 5858 5858
	0x0090:  5858 5858 5858 5858 5858 5858 5858 5858
11:42:06.681697 IP 190-0-175-100.gba.solunet.com.ar.2491 > 184.107.43.74.http: Flags [S], seq 984948282:984948402, win 512, length 120: HTTP
	0x0000:  4500 00a0 6a05 0000 4006 bf38 be00 af64
	0x0010:  b86b 2b4a 09bb 0050 3ab5 1e3a 2272 f4d8
	0x0020:  5002 0200 2d56 0000 5858 5858 5858 5858
	0x0030:  5858 5858 5858 5858 5858 5858 5858 5858
	0x0040:  5858 5858 5858 5858 5858 5858 5858 5858
	0x0050:  5858 5858 5858 5858 5858 5858 5858 5858
	0x0060:  5858 5858 5858 5858 5858 5858 5858 5858
	0x0070:  5858 5858 5858 5858 5858 5858 5858 5858
	0x0080:  5858 5858 5858 5858 5858 5858 5858 5858
	0x0090:  5858 5858 5858 5858 5858 5858 5858 5858
11:42:06.681722 IP 190-0-175-100.gba.solunet.com.ar.2492 > 184.107.43.74.http: Flags [S], seq 2071134208:2071134328, win 512, length 120: HTTP
	0x0000:  4500 00a0 d40c 0000 4006 5531 be00 af64
	0x0010:  b86b 2b4a 09bc 0050 7b73 0000 242d f4fa
	0x0020:  5002 0200 08f4 0000 5858 5858 5858 5858
	0x0030:  5858 5858 5858 5858 5858 5858 5858 5858
	0x0040:  5858 5858 5858 5858 5858 5858 5858 5858
	0x0050:  5858 5858 5858 5858 5858 5858 5858 5858
	0x0060:  5858 5858 5858 5858 5858 5858 5858 5858
	0x0070:  5858 5858 5858 5858 5858 5858 5858 5858
	0x0080:  5858 5858 5858 5858 5858 5858 5858 5858
	0x0090:  5858 5858 5858 5858 5858 5858 5858 5858
11:42:06.681739 IP 190-0-175-100.gba.solunet.com.ar.2493 > 184.107.43.74.http: Flags [S], seq 582048290:582048410, win 512, length 120: HTTP
	0x0000:  4500 00a0 6cb5 0000 4006 bc88 be00 af64
	0x0010:  b86b 2b4a 09bd 0050 22b1 5a22 22a0 7262
	0x0020:  5002 0200 8bb8 0000 5858 5858 5858 5858
	0x0030:  5858 5858 5858 5858 5858 5858 5858 5858
	0x0040:  5858 5858 5858 5858 5858 5858 5858 5858
	0x0050:  5858 5858 5858 5858 5858 5858 5858 5858
	0x0060:  5858 5858 5858 5858 5858 5858 5858 5858
	0x0070:  5858 5858 5858 5858 5858 5858 5858 5858
	0x0080:  5858 5858 5858 5858 5858 5858 5858 5858
	0x0090:  5858 5858 5858 5858 5858 5858 5858 5858
11:42:06.681756 IP 190-0-175-100.gba.solunet.com.ar.2494 > 184.107.43.74.http: Flags [S], seq 1414722580:1414722700, win 512, length 120: HTTP
	0x0000:  4500 00a0 dc2b 0000 4006 4d12 be00 af64
	0x0010:  b86b 2b4a 09be 0050 5452 f414 328a 4c6a
	0x0020:  5002 0200 d631 0000 5858 5858 5858 5858
	0x0030:  5858 5858 5858 5858 5858 5858 5858 5858
	0x0040:  5858 5858 5858 5858 5858 5858 5858 5858
	0x0050:  5858 5858 5858 5858 5858 5858 5858 5858
	0x0060:  5858 5858 5858 5858 5858 5858 5858 5858
	0x0070:  5858 5858 5858 5858 5858 5858 5858 5858
	0x0080:  5858 5858 5858 5858 5858 5858 5858 5858
	0x0090:  5858 5858 5858 5858 5858 5858 5858 5858
11:42:06.681773 IP 190-0-175-100.gba.solunet.com.ar.2495 > 184.107.43.74.http: Flags [S], seq 1376167161:1376167281, win 512, length 120: HTTP
	0x0000:  4500 00a0 dc80 0000 4006 4cbd be00 af64
	0x0010:  b86b 2b4a 09bf 0050 5206 a4f9 610c 0646
	0x0020:  5002 0200 3f3a 0000 5858 5858 5858 5858
	0x0030:  5858 5858 5858 5858 5858 5858 5858 5858
	0x0040:  5858 5858 5858 5858 5858 5858 5858 5858
	0x0050:  5858 5858 5858 5858 5858 5858 5858 5858
	0x0060:  5858 5858 5858 5858 5858 5858 5858 5858
	0x0070:  5858 5858 5858 5858 5858 5858 5858 5858
	0x0080:  5858 5858 5858 5858 5858 5858 5858 5858
	0x0090:  5858 5858 5858 5858 5858 5858 5858 5858
11:42:06.681789 IP 190-0-175-100.gba.solunet.com.ar.2496 > 184.107.43.74.http: Flags [S], seq 793373662:793373782, win 512, length 120: HTTP
	0x0000:  4500 00a0 2323 0000 4006 061b be00 af64
	0x0010:  b86b 2b4a 09c0 0050 2f49 ebde 7a7e 6cbf
	0x0020:  5002 0200 9b25 0000 5858 5858 5858 5858
	0x0030:  5858 5858 5858 5858 5858 5858 5858 5858
	0x0040:  5858 5858 5858 5858 5858 5858 5858 5858
	0x0050:  5858 5858 5858 5858 5858 5858 5858 5858
	0x0060:  5858 5858 5858 5858 5858 5858 5858 5858
	0x0070:  5858 5858 5858 5858 5858 5858 5858 5858
	0x0080:  5858 5858 5858 5858 5858 5858 5858 5858
	0x0090:  5858 5858 5858 5858 5858 5858 5858 5858
11:42:06.681806 IP 190-0-175-100.gba.solunet.com.ar.2497 > 184.107.43.74.http: Flags [S], seq 586859843:586859963, win 512, length 120: HTTP
	0x0000:  4500 00a0 db5b 0000 4006 4de2 be00 af64
	0x0010:  b86b 2b4a 09c1 0050 22fa c543 7545 301e
	0x0020:  5002 0200 0fe9 0000 5858 5858 5858 5858
	0x0030:  5858 5858 5858 5858 5858 5858 5858 5858
	0x0040:  5858 5858 5858 5858 5858 5858 5858 5858
	0x0050:  5858 5858 5858 5858 5858 5858 5858 5858
	0x0060:  5858 5858 5858 5858 5858 5858 5858 5858
	0x0070:  5858 5858 5858 5858 5858 5858 5858 5858
	0x0080:  5858 5858 5858 5858 5858 5858 5858 5858
	0x0090:  5858 5858 5858 5858 5858 5858 5858 5858
11:42:06.681823 IP 190-0-175-100.gba.solunet.com.ar.2498 > 184.107.43.74.http: Flags [S], seq 1313429529:1313429649, win 512, length 120: HTTP
	0x0000:  4500 00a0 ecc8 0000 4006 3c75 be00 af64
	0x0010:  b86b 2b4a 09c2 0050 4e49 5819 1238 51b2
	0x0020:  5002 0200 933c 0000 5858 5858 5858 5858
	0x0030:  5858 5858 5858 5858 5858 5858 5858 5858
	0x0040:  5858 5858 5858 5858 5858 5858 5858 5858
	0x0050:  5858 5858 5858 5858 5858 5858 5858 5858
	0x0060:  5858 5858 5858 5858 5858 5858 5858 5858
	0x0070:  5858 5858 5858 5858 5858 5858 5858 5858
	0x0080:  5858 5858 5858 5858 5858 5858 5858 5858
	0x0090:  5858 5858 5858 5858 5858 5858 5858 5858
11:42:06.681839 IP 190-0-175-100.gba.solunet.com.ar.2499 > 184.107.43.74.http: Flags [S], seq 599747608:599747728, win 512, length 120: HTTP
	0x0000:  4500 00a0 19bb 0000 4006 0f83 be00 af64
	0x0010:  b86b 2b4a 09c3 0050 23bf 6c18 6c09 c724
	0x0020:  5002 0200 da82 0000 5858 5858 5858 5858
	0x0030:  5858 5858 5858 5858 5858 5858 5858 5858
	0x0040:  5858 5858 5858 5858 5858 5858 5858 5858
	0x0050:  5858 5858 5858 5858 5858 5858 5858 5858
	0x0060:  5858 5858 5858 5858 5858 5858 5858 5858
	0x0070:  5858 5858 5858 5858 5858 5858 5858 5858
	0x0080:  5858 5858 5858 5858 5858 5858 5858 5858
	0x0090:  5858 5858 5858 5858 5858 5858 5858 5858
11:42:06.681856 IP 190-0-175-100.gba.solunet.com.ar.2500 > 184.107.43.74.http: Flags [S], seq 1764270382:1764270502, win 512, length 120: HTTP
	0x0000:  4500 00a0 771e 0000 4006 b21f be00 af64
	0x0010:  b86b 2b4a 09c4 0050 6928 a12e 61bc daf9
	0x0020:  5002 0200 567a 0000 5858 5858 5858 5858
	0x0030:  5858 5858 5858 5858 5858 5858 5858 5858
	0x0040:  5858 5858 5858 5858 5858 5858 5858 5858
	0x0050:  5858 5858 5858 5858 5858 5858 5858 5858
	0x0060:  5858 5858 5858 5858 5858 5858 5858 5858
	0x0070:  5858 5858 5858 5858 5858 5858 5858 5858
	0x0080:  5858 5858 5858 5858 5858 5858 5858 5858
	0x0090:  5858 5858 5858 5858 5858 5858 5858 5858
11:42:06.681872 IP 190-0-175-100.gba.solunet.com.ar.2501 > 184.107.43.74.http: Flags [S], seq 1266534982:1266535102, win 512, length 120: HTTP
	0x0000:  4500 00a0 6bf6 0000 4006 bd47 be00 af64
	0x0010:  b86b 2b4a 09c5 0050 4b7d ca46 1c71 f933
	0x0020:  5002 0200 721d 0000 5858 5858 5858 5858
	0x0030:  5858 5858 5858 5858 5858 5858 5858 5858
	0x0040:  5858 5858 5858 5858 5858 5858 5858 5858
	0x0050:  5858 5858 5858 5858 5858 5858 5858 5858
	0x0060:  5858 5858 5858 5858 5858 5858 5858 5858
	0x0070:  5858 5858 5858 5858 5858 5858 5858 5858
	0x0080:  5858 5858 5858 5858 5858 5858 5858 5858
	0x0090:  5858 5858 5858 5858 5858 5858 5858 5858
11:42:06.681889 IP 190-0-175-100.gba.solunet.com.ar.2502 > 184.107.43.74.http: Flags [S], seq 1923888203:1923888323, win 512, length 120: HTTP
	0x0000:  4500 00a0 60f0 0000 4006 c84d be00 af64
	0x0010:  b86b 2b4a 09c6 0050 72ac 344b 17e4 f933
	0x0020:  5002 0200 e575 0000 5858 5858 5858 5858
	0x0030:  5858 5858 5858 5858 5858 5858 5858 5858
	0x0040:  5858 5858 5858 5858 5858 5858 5858 5858
	0x0050:  5858 5858 5858 5858 5858 5858 5858 5858
	0x0060:  5858 5858 5858 5858 5858 5858 5858 5858
	0x0070:  5858 5858 5858 5858 5858 5858 5858 5858
	0x0080:  5858 5858 5858 5858 5858 5858 5858 5858
	0x0090:  5858 5858 5858 5858 5858 5858 5858 5858
11:42:06.681906 IP 190-0-175-100.gba.solunet.com.ar.2503 > 184.107.43.74.http: Flags [S], seq 477956184:477956304, win 512, length 120: HTTP
	0x0000:  4500 00a0 d353 0000 4006 55ea be00 af64
	0x0010:  b86b 2b4a 09c7 0050 1c7d 0858 3a96 5356
	0x0020:  5002 0200 eac2 0000 5858 5858 5858 5858
	0x0030:  5858 5858 5858 5858 5858 5858 5858 5858
	0x0040:  5858 5858 5858 5858 5858 5858 5858 5858
	0x0050:  5858 5858 5858 5858 5858 5858 5858 5858
	0x0060:  5858 5858 5858 5858 5858 5858 5858 5858
	0x0070:  5858 5858 5858 5858 5858 5858 5858 5858
	0x0080:  5858 5858 5858 5858 5858 5858 5858 5858
	0x0090:  5858 5858 5858 5858 5858 5858 5858 5858
11:42:06.681924 IP 190-0-175-100.gba.solunet.com.ar.2504 > 184.107.43.74.http: Flags [S], seq 1697346829:1697346949, win 512, length 120: HTTP
	0x0000:  4500 00a0 1fbd 0000 4006 0981 be00 af64
	0x0010:  b86b 2b4a 09c8 0050 652b 750d 0ee9 476a
	0x0020:  5002 0200 6cf7 0000 5858 5858 5858 5858
	0x0030:  5858 5858 5858 5858 5858 5858 5858 5858
	0x0040:  5858 5858 5858 5858 5858 5858 5858 5858
	0x0050:  5858 5858 5858 5858 5858 5858 5858 5858
	0x0060:  5858 5858 5858 5858 5858 5858 5858 5858
	0x0070:  5858 5858 5858 5858 5858 5858 5858 5858
	0x0080:  5858 5858 5858 5858 5858 5858 5858 5858
	0x0090:  5858 5858 5858 5858 5858 5858 5858 5858
11:42:06.681941 IP 190-0-175-100.gba.solunet.com.ar.2505 > 184.107.43.74.http: Flags [S], seq 1581732153:1581732273, win 512, length 120: HTTP
	0x0000:  4500 00a0 2603 0000 4006 033b be00 af64
	0x0010:  b86b 2b4a 09c9 0050 5e47 5139 60ef ec64
	0x0020:  5002 0200 a0ad 0000 5858 5858 5858 5858
	0x0030:  5858 5858 5858 5858 5858 5858 5858 5858
	0x0040:  5858 5858 5858 5858 5858 5858 5858 5858
	0x0050:  5858 5858 5858 5858 5858 5858 5858 5858
	0x0060:  5858 5858 5858 5858 5858 5858 5858 5858
	0x0070:  5858 5858 5858 5858 5858 5858 5858 5858
	0x0080:  5858 5858 5858 5858 5858 5858 5858 5858
	0x0090:  5858 5858 5858 5858 5858 5858 5858 5858
11:42:06.681958 IP 190-0-175-100.gba.solunet.com.ar.2506 > 184.107.43.74.http: Flags [S], seq 2134846905:2134847025, win 512, length 120: HTTP
	0x0000:  4500 00a0 92c2 0000 4006 967b be00 af64
	0x0010:  b86b 2b4a 09ca 0050 7f3f 2db9 1039 d842
	0x0020:  5002 0200 080d 0000 5858 5858 5858 5858
	0x0030:  5858 5858 5858 5858 5858 5858 5858 5858
	0x0040:  5858 5858 5858 5858 5858 5858 5858 5858
	0x0050:  5858 5858 5858 5858 5858 5858 5858 5858
	0x0060:  5858 5858 5858 5858 5858 5858 5858 5858
	0x0070:  5858 5858 5858 5858 5858 5858 5858 5858
	0x0080:  5858 5858 5858 5858 5858 5858 5858 5858
	0x0090:  5858 5858 5858 5858 5858 5858 5858 5858
11:42:06.681975 IP 190-0-175-100.gba.solunet.com.ar.2507 > 184.107.43.74.http: Flags [S], seq 5001436:5001556, win 512, length 120: HTTP
	0x0000:  4500 00a0 c2e0 0000 4006 665d be00 af64
	0x0010:  b86b 2b4a 09cb 0050 004c 50dc 3334 9d86
	0x0020:  5002 0200 7b9d 0000 5858 5858 5858 5858
	0x0030:  5858 5858 5858 5858 5858 5858 5858 5858
	0x0040:  5858 5858 5858 5858 5858 5858 5858 5858
	0x0050:  5858 5858 5858 5858 5858 5858 5858 5858
	0x0060:  5858 5858 5858 5858 5858 5858 5858 5858
	0x0070:  5858 5858 5858 5858 5858 5858 5858 5858
	0x0080:  5858 5858 5858 5858 5858 5858 5858 5858
	0x0090:  5858 5858 5858 5858 5858 5858 5858 5858
11:42:06.681992 IP 190-0-175-100.gba.solunet.com.ar.2508 > 184.107.43.74.http: Flags [S], seq 100084791:100084911, win 512, length 120: HTTP
	0x0000:  4500 00a0 1493 0000 4006 14ab be00 af64
	0x0010:  b86b 2b4a 09cc 0050 05f7 2c37 017d f59f
	0x0020:  5002 0200 7434 0000 5858 5858 5858 5858
	0x0030:  5858 5858 5858 5858 5858 5858 5858 5858
	0x0040:  5858 5858 5858 5858 5858 5858 5858 5858
	0x0050:  5858 5858 5858 5858 5858 5858 5858 5858
	0x0060:  5858 5858 5858 5858 5858 5858 5858 5858
	0x0070:  5858 5858 5858 5858 5858 5858 5858 5858
	0x0080:  5858 5858 5858 5858 5858 5858 5858 5858
	0x0090:  5858 5858 5858 5858 5858 5858 5858 5858
11:42:06.682008 IP 190-0-175-100.gba.solunet.com.ar.2509 > 184.107.43.74.http: Flags [S], seq 1351883007:1351883127, win 512, length 120: HTTP
	0x0000:  4500 00a0 dbb7 0000 4006 4d86 be00 af64
	0x0010:  b86b 2b4a 09cd 0050 5094 18ff 253d 61b7
	0x0020:  5002 0200 acf6 0000 5858 5858 5858 5858
	0x0030:  5858 5858 5858 5858 5858 5858 5858 5858
	0x0040:  5858 5858 5858 5858 5858 5858 5858 5858
	0x0050:  5858 5858 5858 5858 5858 5858 5858 5858
	0x0060:  5858 5858 5858 5858 5858 5858 5858 5858
	0x0070:  5858 5858 5858 5858 5858 5858 5858 5858
	0x0080:  5858 5858 5858 5858 5858 5858 5858 5858
	0x0090:  5858 5858 5858 5858 5858 5858 5858 5858
11:42:06.682025 IP 190-0-175-100.gba.solunet.com.ar.2510 > 184.107.43.74.http: Flags [S], seq 892547770:892547890, win 512, length 120: HTTP
	0x0000:  4500 00a0 b6b0 0000 4006 728d be00 af64
	0x0010:  b86b 2b4a 09ce 0050 3533 32ba 0e66 02e5
	0x0020:  5002 0200 2445 0000 5858 5858 5858 5858
	0x0030:  5858 5858 5858 5858 5858 5858 5858 5858
	0x0040:  5858 5858 5858 5858 5858 5858 5858 5858
	0x0050:  5858 5858 5858 5858 5858 5858 5858 5858
	0x0060:  5858 5858 5858 5858 5858 5858 5858 5858
	0x0070:  5858 5858 5858 5858 5858 5858 5858 5858
	0x0080:  5858 5858 5858 5858 5858 5858 5858 5858
	0x0090:  5858 5858 5858 5858 5858 5858 5858 5858
11:42:06.682041 IP 190-0-175-100.gba.solunet.com.ar.2511 > 184.107.43.74.http: Flags [S], seq 203925976:203926096, win 512, length 120: HTTP
	0x0000:  4500 00a0 afe3 0000 4006 795a be00 af64
	0x0010:  b86b 2b4a 09cf 0050 0c27 a9d8 59e3 cd2c
	0x0020:  5002 0200 c06c 0000 5858 5858 5858 5858
	0x0030:  5858 5858 5858 5858 5858 5858 5858 5858
	0x0040:  5858 5858 5858 5858 5858 5858 5858 5858
	0x0050:  5858 5858 5858 5858 5858 5858 5858 5858
	0x0060:  5858 5858 5858 5858 5858 5858 5858 5858
	0x0070:  5858 5858 5858 5858 5858 5858 5858 5858
	0x0080:  5858 5858 5858 5858 5858 5858 5858 5858
	0x0090:  5858 5858 5858 5858 5858 5858 5858 5858
11:42:06.682058 IP 190-0-175-100.gba.solunet.com.ar.2512 > 184.107.43.74.http: Flags [S], seq 93263311:93263431, win 512, length 120: HTTP
	0x0000:  4500 00a0 a917 0000 4006 8026 be00 af64
	0x0010:  b86b 2b4a 09d0 0050 058f 15cf 4c90 0177
	0x0020:  5002 0200 3416 0000 5858 5858 5858 5858
	0x0030:  5858 5858 5858 5858 5858 5858 5858 5858
	0x0040:  5858 5858 5858 5858 5858 5858 5858 5858
	0x0050:  5858 5858 5858 5858 5858 5858 5858 5858
	0x0060:  5858 5858 5858 5858 5858 5858 5858 5858
	0x0070:  5858 5858 5858 5858 5858 5858 5858 5858
	0x0080:  5858 5858 5858 5858 5858 5858 5858 5858
	0x0090:  5858 5858 5858 5858 5858 5858 5858 5858
11:42:06.682075 IP 190-0-175-100.gba.solunet.com.ar.2513 > 184.107.43.74.http: Flags [S], seq 589592255:589592375, win 512, length 120: HTTP
	0x0000:  4500 00a0 fc6d 0000 4006 2cd0 be00 af64
	0x0010:  b86b 2b4a 09d1 0050 2324 76bf 690d 09cf
	0x0020:  5002 0200 90ba 0000 5858 5858 5858 5858
	0x0030:  5858 5858 5858 5858 5858 5858 5858 5858
	0x0040:  5858 5858 5858 5858 5858 5858 5858 5858
	0x0050:  5858 5858 5858 5858 5858 5858 5858 5858
	0x0060:  5858 5858 5858 5858 5858 5858 5858 5858
	0x0070:  5858 5858 5858 5858 5858 5858 5858 5858
	0x0080:  5858 5858 5858 5858 5858 5858 5858 5858
	0x0090:  5858 5858 5858 5858 5858 5858 5858 5858
11:42:06.682092 IP 190-0-175-100.gba.solunet.com.ar.2514 > 184.107.43.74.http: Flags [S], seq 1666861586:1666861706, win 512, length 120: HTTP
	0x0000:  4500 00a0 43d7 0000 4006 e566 be00 af64
	0x0010:  b86b 2b4a 09d2 0050 635a 4a12 4e38 7edd
	0x0020:  5002 0200 22f7 0000 5858 5858 5858 5858
	0x0030:  5858 5858 5858 5858 5858 5858 5858 5858
	0x0040:  5858 5858 5858 5858 5858 5858 5858 5858
	0x0050:  5858 5858 5858 5858 5858 5858 5858 5858
	0x0060:  5858 5858 5858 5858 5858 5858 5858 5858
	0x0070:  5858 5858 5858 5858 5858 5858 5858 5858
	0x0080:  5858 5858 5858 5858 5858 5858 5858 5858
	0x0090:  5858 5858 5858 5858 5858 5858 5858 5858
11:42:06.682108 IP 190-0-175-100.gba.solunet.com.ar.2515 > 184.107.43.74.http: Flags [S], seq 1444571600:1444571720, win 512, length 120: HTTP
	0x0000:  4500 00a0 303b 0000 4006 f902 be00 af64
	0x0010:  b86b 2b4a 09d3 0050 561a 69d0 2c7f d016
	0x0020:  5002 0200 e0f7 0000 5858 5858 5858 5858
	0x0030:  5858 5858 5858 5858 5858 5858 5858 5858
	0x0040:  5858 5858 5858 5858 5858 5858 5858 5858
	0x0050:  5858 5858 5858 5858 5858 5858 5858 5858
	0x0060:  5858 5858 5858 5858 5858 5858 5858 5858
	0x0070:  5858 5858 5858 5858 5858 5858 5858 5858
	0x0080:  5858 5858 5858 5858 5858 5858 5858 5858
	0x0090:  5858 5858 5858 5858 5858 5858 5858 5858
11:42:06.682125 IP 190-0-175-100.gba.solunet.com.ar.2516 > 184.107.43.74.http: Flags [S], seq 702975955:702976075, win 512, length 120: HTTP
	0x0000:  4500 00a0 087e 0000 4006 20c0 be00 af64
	0x0010:  b86b 2b4a 09d4 0050 29e6 8fd3 2bbe fdcf
	0x0020:  5002 0200 ba2f 0000 5858 5858 5858 5858
	0x0030:  5858 5858 5858 5858 5858 5858 5858 5858
	0x0040:  5858 5858 5858 5858 5858 5858 5858 5858
	0x0050:  5858 5858 5858 5858 5858 5858 5858 5858
	0x0060:  5858 5858 5858 5858 5858 5858 5858 5858
	0x0070:  5858 5858 5858 5858 5858 5858 5858 5858
	0x0080:  5858 5858 5858 5858 5858 5858 5858 5858
	0x0090:  5858 5858 5858 5858 5858 5858 5858 5858
11:42:06.682152 IP 190-0-175-100.gba.solunet.com.ar.2517 > 184.107.43.74.http: Flags [S], seq 2016486038:2016486158, win 512, length 120: HTTP
	0x0000:  4500 00a0 a604 0000 4006 8339 be00 af64
	0x0010:  b86b 2b4a 09d5 0050 7831 2296 2c0b 4eab
	0x0020:  5002 0200 87f8 0000 5858 5858 5858 5858
	0x0030:  5858 5858 5858 5858 5858 5858 5858 5858
	0x0040:  5858 5858 5858 5858 5858 5858 5858 5858
	0x0050:  5858 5858 5858 5858 5858 5858 5858 5858
	0x0060:  5858 5858 5858 5858 5858 5858 5858 5858
	0x0070:  5858 5858 5858 5858 5858 5858 5858 5858
	0x0080:  5858 5858 5858 5858 5858 5858 5858 5858
	0x0090:  5858 5858 5858 5858 5858 5858 5858 5858
11:42:06.682172 IP 190-0-175-100.gba.solunet.com.ar.2518 > 184.107.43.74.http: Flags [S], seq 1002497398:1002497518, win 512, length 120: HTTP
	0x0000:  4500 00a0 9ba3 0000 4006 8d9a be00 af64
	0x0010:  b86b 2b4a 09d6 0050 3bc0 e576 3202 7ae2
	0x0020:  5002 0200 cf59 0000 5858 5858 5858 5858
	0x0030:  5858 5858 5858 5858 5858 5858 5858 5858
	0x0040:  5858 5858 5858 5858 5858 5858 5858 5858
	0x0050:  5858 5858 5858 5858 5858 5858 5858 5858
	0x0060:  5858 5858 5858 5858 5858 5858 5858 5858
	0x0070:  5858 5858 5858 5858 5858 5858 5858 5858
	0x0080:  5858 5858 5858 5858 5858 5858 5858 5858
	0x0090:  5858 5858 5858 5858 5858 5858 5858 5858
11:42:06.682191 IP 190-0-175-100.gba.solunet.com.ar.2519 > 184.107.43.74.http: Flags [S], seq 294189577:294189697, win 512, length 120: HTTP
	0x0000:  4500 00a0 fd5a 0000 4006 2be3 be00 af64
	0x0010:  b86b 2b4a 09d7 0050 1188 fa09 0296 93e1
	0x0020:  5002 0200 fb6a 0000 5858 5858 5858 5858
	0x0030:  5858 5858 5858 5858 5858 5858 5858 5858
	0x0040:  5858 5858 5858 5858 5858 5858 5858 5858
	0x0050:  5858 5858 5858 5858 5858 5858 5858 5858
	0x0060:  5858 5858 5858 5858 5858 5858 5858 5858
	0x0070:  5858 5858 5858 5858 5858 5858 5858 5858
	0x0080:  5858 5858 5858 5858 5858 5858 5858 5858
	0x0090:  5858 5858 5858 5858 5858 5858 5858 5858
11:42:06.682210 IP 190-0-175-100.gba.solunet.com.ar.2520 > 184.107.43.74.http: Flags [S], seq 1398461889:1398462009, win 512, length 120: HTTP
	0x0000:  4500 00a0 003f 0000 4006 28ff be00 af64
	0x0010:  b86b 2b4a 09d8 0050 535a d5c1 37c9 c69b
	0x0020:  5002 0200 75f2 0000 5858 5858 5858 5858
	0x0030:  5858 5858 5858 5858 5858 5858 5858 5858
	0x0040:  5858 5858 5858 5858 5858 5858 5858 5858
	0x0050:  5858 5858 5858 5858 5858 5858 5858 5858
	0x0060:  5858 5858 5858 5858 5858 5858 5858 5858
	0x0070:  5858 5858 5858 5858 5858 5858 5858 5858
	0x0080:  5858 5858 5858 5858 5858 5858 5858 5858
	0x0090:  5858 5858 5858 5858 5858 5858 5858 5858
11:42:06.682227 IP 190-0-175-100.gba.solunet.com.ar.2521 > 184.107.43.74.http: Flags [S], seq 1995017329:1995017449, win 512, length 120: HTTP
	0x0000:  4500 00a0 cd6b 0000 4006 5bd2 be00 af64
	0x0010:  b86b 2b4a 09d9 0050 76e9 8c71 43f1 7073
	0x0020:  5002 0200 e5b2 0000 5858 5858 5858 5858
	0x0030:  5858 5858 5858 5858 5858 5858 5858 5858
	0x0040:  5858 5858 5858 5858 5858 5858 5858 5858
	0x0050:  5858 5858 5858 5858 5858 5858 5858 5858
	0x0060:  5858 5858 5858 5858 5858 5858 5858 5858
	0x0070:  5858 5858 5858 5858 5858 5858 5858 5858
	0x0080:  5858 5858 5858 5858 5858 5858 5858 5858
	0x0090:  5858 5858 5858 5858 5858 5858 5858 5858
11:42:06.682243 IP 190-0-175-100.gba.solunet.com.ar.2522 > 184.107.43.74.http: Flags [S], seq 921320533:921320653, win 512, length 120: HTTP
	0x0000:  4500 00a0 cee3 0000 4006 5a5a be00 af64
	0x0010:  b86b 2b4a 09da 0050 36ea 3c55 4980 8642
	0x0020:  5002 0200 5a6f 0000 5858 5858 5858 5858
	0x0030:  5858 5858 5858 5858 5858 5858 5858 5858
	0x0040:  5858 5858 5858 5858 5858 5858 5858 5858
	0x0050:  5858 5858 5858 5858 5858 5858 5858 5858
	0x0060:  5858 5858 5858 5858 5858 5858 5858 5858
	0x0070:  5858 5858 5858 5858 5858 5858 5858 5858
	0x0080:  5858 5858 5858 5858 5858 5858 5858 5858
	0x0090:  5858 5858 5858 5858 5858 5858 5858 5858
11:42:06.682259 IP 190-0-175-100.gba.solunet.com.ar.2523 > 184.107.43.74.http: Flags [S], seq 248505708:248505828, win 512, length 120: HTTP
	0x0000:  4500 00a0 d8b2 0000 4006 508b be00 af64
	0x0010:  b86b 2b4a 09db 0050 0ecf e56c 6ca4 fd02
	0x0020:  5002 0200 3f8d 0000 5858 5858 5858 5858
	0x0030:  5858 5858 5858 5858 5858 5858 5858 5858
	0x0040:  5858 5858 5858 5858 5858 5858 5858 5858
	0x0050:  5858 5858 5858 5858 5858 5858 5858 5858
	0x0060:  5858 5858 5858 5858 5858 5858 5858 5858
	0x0070:  5858 5858 5858 5858 5858 5858 5858 5858
	0x0080:  5858 5858 5858 5858 5858 5858 5858 5858
	0x0090:  5858 5858 5858 5858 5858 5858 5858 5858
11:42:06.682276 IP 190-0-175-100.gba.solunet.com.ar.2524 > 184.107.43.74.http: Flags [S], seq 558621145:558621265, win 512, length 120: HTTP
	0x0000:  4500 00a0 578f 0000 4006 d1ae be00 af64
	0x0010:  b86b 2b4a 09dc 0050 214b e1d9 4fff 4714
	0x0020:  5002 0200 0337 0000 5858 5858 5858 5858
	0x0030:  5858 5858 5858 5858 5858 5858 5858 5858
	0x0040:  5858 5858 5858 5858 5858 5858 5858 5858
	0x0050:  5858 5858 5858 5858 5858 5858 5858 5858
	0x0060:  5858 5858 5858 5858 5858 5858 5858 5858
	0x0070:  5858 5858 5858 5858 5858 5858 5858 5858
	0x0080:  5858 5858 5858 5858 5858 5858 5858 5858
	0x0090:  5858 5858 5858 5858 5858 5858 5858 5858
11:42:06.682292 IP 190-0-175-100.gba.solunet.com.ar.2525 > 184.107.43.74.http: Flags [S], seq 1118905776:1118905896, win 512, length 120: HTTP
	0x0000:  4500 00a0 27a5 0000 4006 0199 be00 af64
	0x0010:  b86b 2b4a 09dd 0050 42b1 25b0 2619 b0e4
	0x0020:  5002 0200 5e0f 0000 5858 5858 5858 5858
	0x0030:  5858 5858 5858 5858 5858 5858 5858 5858
	0x0040:  5858 5858 5858 5858 5858 5858 5858 5858
	0x0050:  5858 5858 5858 5858 5858 5858 5858 5858
	0x0060:  5858 5858 5858 5858 5858 5858 5858 5858
	0x0070:  5858 5858 5858 5858 5858 5858 5858 5858
	0x0080:  5858 5858 5858 5858 5858 5858 5858 5858
	0x0090:  5858 5858 5858 5858 5858 5858 5858 5858
11:42:06.682308 IP 190-0-175-100.gba.solunet.com.ar.2526 > 184.107.43.74.http: Flags [S], seq 1158043116:1158043236, win 512, length 120: HTTP
	0x0000:  4500 00a0 2574 0000 4006 03ca be00 af64
	0x0010:  b86b 2b4a 09de 0050 4506 55ec 5000 40b8
	0x0020:  5002 0200 71c2 0000 5858 5858 5858 5858
	0x0030:  5858 5858 5858 5858 5858 5858 5858 5858
	0x0040:  5858 5858 5858 5858 5858 5858 5858 5858
	0x0050:  5858 5858 5858 5858 5858 5858 5858 5858
	0x0060:  5858 5858 5858 5858 5858 5858 5858 5858
	0x0070:  5858 5858 5858 5858 5858 5858 5858 5858
	0x0080:  5858 5858 5858 5858 5858 5858 5858 5858
	0x0090:  5858 5858 5858 5858 5858 5858 5858 5858
11:42:06.682325 IP 190-0-175-100.gba.solunet.com.ar.2527 > 184.107.43.74.http: Flags [S], seq 1469406826:1469406946, win 512, length 120: HTTP
	0x0000:  4500 00a0 741f 0000 4006 b51e be00 af64
	0x0010:  b86b 2b4a 09df 0050 5795 5e6a 4831 634e
	0x0020:  5002 0200 3bed 0000 5858 5858 5858 5858
	0x0030:  5858 5858 5858 5858 5858 5858 5858 5858
	0x0040:  5858 5858 5858 5858 5858 5858 5858 5858
	0x0050:  5858 5858 5858 5858 5858 5858 5858 5858
	0x0060:  5858 5858 5858 5858 5858 5858 5858 5858
	0x0070:  5858 5858 5858 5858 5858 5858 5858 5858
	0x0080:  5858 5858 5858 5858 5858 5858 5858 5858
	0x0090:  5858 5858 5858 5858 5858 5858 5858 5858
11:42:06.682341 IP 190-0-175-100.gba.solunet.com.ar.2528 > 184.107.43.74.http: Flags [S], seq 492373102:492373222, win 512, length 120: HTTP
	0x0000:  4500 00a0 ef01 0000 4006 3a3c be00 af64
	0x0010:  b86b 2b4a 09e0 0050 1d59 046e 03f2 48c4
	0x0020:  5002 0200 2eee 0000 5858 5858 5858 5858
	0x0030:  5858 5858 5858 5858 5858 5858 5858 5858
	0x0040:  5858 5858 5858 5858 5858 5858 5858 5858
	0x0050:  5858 5858 5858 5858 5858 5858 5858 5858
	0x0060:  5858 5858 5858 5858 5858 5858 5858 5858
	0x0070:  5858 5858 5858 5858 5858 5858 5858 5858
	0x0080:  5858 5858 5858 5858 5858 5858 5858 5858
	0x0090:  5858 5858 5858 5858 5858 5858 5858 5858
11:42:06.682357 IP 190-0-175-100.gba.solunet.com.ar.2529 > 184.107.43.74.http: Flags [S], seq 1687855121:1687855241, win 512, length 120: HTTP
	0x0000:  4500 00a0 82e2 0000 4006 a65b be00 af64
	0x0010:  b86b 2b4a 09e1 0050 649a a011 157b 42ce
	0x0020:  5002 0200 4075 0000 5858 5858 5858 5858
	0x0030:  5858 5858 5858 5858 5858 5858 5858 5858
	0x0040:  5858 5858 5858 5858 5858 5858 5858 5858
	0x0050:  5858 5858 5858 5858 5858 5858 5858 5858
	0x0060:  5858 5858 5858 5858 5858 5858 5858 5858
	0x0070:  5858 5858 5858 5858 5858 5858 5858 5858
	0x0080:  5858 5858 5858 5858 5858 5858 5858 5858
	0x0090:  5858 5858 5858 5858 5858 5858 5858 5858
11:42:06.682374 IP 190-0-175-100.gba.solunet.com.ar.2530 > 184.107.43.74.http: Flags [S], seq 1360633195:1360633315, win 512, length 120: HTTP
	0x0000:  4500 00a0 497d 0000 4006 dfc0 be00 af64
	0x0010:  b86b 2b4a 09e2 0050 5119 9d6b 68d6 188f
	0x0020:  5002 0200 2d7f 0000 5858 5858 5858 5858
	0x0030:  5858 5858 5858 5858 5858 5858 5858 5858
	0x0040:  5858 5858 5858 5858 5858 5858 5858 5858
	0x0050:  5858 5858 5858 5858 5858 5858 5858 5858
	0x0060:  5858 5858 5858 5858 5858 5858 5858 5858
	0x0070:  5858 5858 5858 5858 5858 5858 5858 5858
	0x0080:  5858 5858 5858 5858 5858 5858 5858 5858
	0x0090:  5858 5858 5858 5858 5858 5858 5858 5858
11:42:06.682390 IP 190-0-175-100.gba.solunet.com.ar.2531 > 184.107.43.74.http: Flags [S], seq 1274977706:1274977826, win 512, length 120: HTTP
	0x0000:  4500 00a0 b9f1 0000 4006 6f4c be00 af64
	0x0010:  b86b 2b4a 09e3 0050 4bfe 9daa 5fbf a500
	0x0020:  5002 0200 aeff 0000 5858 5858 5858 5858
	0x0030:  5858 5858 5858 5858 5858 5858 5858 5858
	0x0040:  5858 5858 5858 5858 5858 5858 5858 5858
	0x0050:  5858 5858 5858 5858 5858 5858 5858 5858
	0x0060:  5858 5858 5858 5858 5858 5858 5858 5858
	0x0070:  5858 5858 5858 5858 5858 5858 5858 5858
	0x0080:  5858 5858 5858 5858 5858 5858 5858 5858
	0x0090:  5858 5858 5858 5858 5858 5858 5858 5858
11:42:06.682407 IP 190-0-175-100.gba.solunet.com.ar.2532 > 184.107.43.74.http: Flags [S], seq 549939990:549940110, win 512, length 120: HTTP
	0x0000:  4500 00a0 4033 0000 4006 e90a be00 af64
	0x0010:  b86b 2b4a 09e4 0050 20c7 6b16 16a9 e155
	0x0020:  5002 0200 198b 0000 5858 5858 5858 5858
	0x0030:  5858 5858 5858 5858 5858 5858 5858 5858
	0x0040:  5858 5858 5858 5858 5858 5858 5858 5858
	0x0050:  5858 5858 5858 5858 5858 5858 5858 5858
	0x0060:  5858 5858 5858 5858 5858 5858 5858 5858
	0x0070:  5858 5858 5858 5858 5858 5858 5858 5858
	0x0080:  5858 5858 5858 5858 5858 5858 5858 5858
	0x0090:  5858 5858 5858 5858 5858 5858 5858 5858
11:42:06.682423 IP 190-0-175-100.gba.solunet.com.ar.2533 > 184.107.43.74.http: Flags [S], seq 1109408249:1109408369, win 512, length 120: HTTP
	0x0000:  4500 00a0 3d35 0000 4006 ec08 be00 af64
	0x0010:  b86b 2b4a 09e5 0050 4220 39f9 2579 c6c1
	0x0020:  5002 0200 3512 0000 5858 5858 5858 5858
	0x0030:  5858 5858 5858 5858 5858 5858 5858 5858
	0x0040:  5858 5858 5858 5858 5858 5858 5858 5858
	0x0050:  5858 5858 5858 5858 5858 5858 5858 5858
	0x0060:  5858 5858 5858 5858 5858 5858 5858 5858
	0x0070:  5858 5858 5858 5858 5858 5858 5858 5858
	0x0080:  5858 5858 5858 5858 5858 5858 5858 5858
	0x0090:  5858 5858 5858 5858 5858 5858 5858 5858
11:42:06.682439 IP 190-0-175-100.gba.solunet.com.ar.2534 > 184.107.43.74.http: Flags [S], seq 1283855019:1283855139, win 512, length 120: HTTP
	0x0000:  4500 00a0 844a 0000 4006 a4f3 be00 af64
	0x0010:  b86b 2b4a 09e6 0050 4c86 12ab 46c5 a89a
	0x0020:  5002 0200 4ed4 0000 5858 5858 5858 5858
	0x0030:  5858 5858 5858 5858 5858 5858 5858 5858
	0x0040:  5858 5858 5858 5858 5858 5858 5858 5858
	0x0050:  5858 5858 5858 5858 5858 5858 5858 5858
	0x0060:  5858 5858 5858 5858 5858 5858 5858 5858
	0x0070:  5858 5858 5858 5858 5858 5858 5858 5858
	0x0080:  5858 5858 5858 5858 5858 5858 5858 5858
	0x0090:  5858 5858 5858 5858 5858 5858 5858 5858
11:42:06.682455 IP 190-0-175-100.gba.solunet.com.ar.2535 > 184.107.43.74.http: Flags [S], seq 623143483:623143603, win 512, length 120: HTTP
	0x0000:  4500 00a0 352e 0000 4006 f40f be00 af64
	0x0010:  b86b 2b4a 09e7 0050 2524 6a3b 0976 ce4b
	0x0020:  5002 0200 3643 0000 5858 5858 5858 5858
	0x0030:  5858 5858 5858 5858 5858 5858 5858 5858
	0x0040:  5858 5858 5858 5858 5858 5858 5858 5858
	0x0050:  5858 5858 5858 5858 5858 5858 5858 5858
	0x0060:  5858 5858 5858 5858 5858 5858 5858 5858
	0x0070:  5858 5858 5858 5858 5858 5858 5858 5858
	0x0080:  5858 5858 5858 5858 5858 5858 5858 5858
	0x0090:  5858 5858 5858 5858 5858 5858 5858 5858
11:42:06.682472 IP 190-0-175-100.gba.solunet.com.ar.2536 > 184.107.43.74.http: Flags [S], seq 709005792:709005912, win 512, length 120: HTTP
	0x0000:  4500 00a0 75e6 0000 4006 b357 be00 af64
	0x0010:  b86b 2b4a 09e8 0050 2a42 91e0 4e7d 2437
	0x0020:  5002 0200 6e8c 0000 5858 5858 5858 5858
	0x0030:  5858 5858 5858 5858 5858 5858 5858 5858
	0x0040:  5858 5858 5858 5858 5858 5858 5858 5858
	0x0050:  5858 5858 5858 5858 5858 5858 5858 5858
	0x0060:  5858 5858 5858 5858 5858 5858 5858 5858
	0x0070:  5858 5858 5858 5858 5858 5858 5858 5858
	0x0080:  5858 5858 5858 5858 5858 5858 5858 5858
	0x0090:  5858 5858 5858 5858 5858 5858 5858 5858
11:42:06.682488 IP 190-0-175-100.gba.solunet.com.ar.2537 > 184.107.43.74.http: Flags [S], seq 1528805205:1528805325, win 512, length 120: HTTP
	0x0000:  4500 00a0 d934 0000 4006 5009 be00 af64
	0x0010:  b86b 2b4a 09e9 0050 5b1f b755 2612 82a1
	0x0020:  5002 0200 e239 0000 5858 5858 5858 5858
	0x0030:  5858 5858 5858 5858 5858 5858 5858 5858
	0x0040:  5858 5858 5858 5858 5858 5858 5858 5858
	0x0050:  5858 5858 5858 5858 5858 5858 5858 5858
	0x0060:  5858 5858 5858 5858 5858 5858 5858 5858
	0x0070:  5858 5858 5858 5858 5858 5858 5858 5858
	0x0080:  5858 5858 5858 5858 5858 5858 5858 5858
	0x0090:  5858 5858 5858 5858 5858 5858 5858 5858
11:42:06.682504 IP 190-0-175-100.gba.solunet.com.ar.2538 > 184.107.43.74.http: Flags [S], seq 940059508:940059628, win 512, length 120: HTTP
	0x0000:  4500 00a0 21f9 0000 4006 0745 be00 af64
	0x0010:  b86b 2b4a 09ea 0050 3808 2b74 436b 870f
	0x0020:  5002 0200 6f6a 0000 5858 5858 5858 5858
	0x0030:  5858 5858 5858 5858 5858 5858 5858 5858
	0x0040:  5858 5858 5858 5858 5858 5858 5858 5858
	0x0050:  5858 5858 5858 5858 5858 5858 5858 5858
	0x0060:  5858 5858 5858 5858 5858 5858 5858 5858
	0x0070:  5858 5858 5858 5858 5858 5858 5858 5858
	0x0080:  5858 5858 5858 5858 5858 5858 5858 5858
	0x0090:  5858 5858 5858 5858 5858 5858 5858 5858
11:42:06.682521 IP 190-0-175-100.gba.solunet.com.ar.2539 > 184.107.43.74.http: Flags [S], seq 1190337142:1190337262, win 512, length 120: HTTP
	0x0000:  4500 00a0 64c7 0000 4006 c476 be00 af64
	0x0010:  b86b 2b4a 09eb 0050 46f3 1a76 2806 2720
	0x0020:  5002 0200 ecd0 0000 5858 5858 5858 5858
	0x0030:  5858 5858 5858 5858 5858 5858 5858 5858
	0x0040:  5858 5858 5858 5858 5858 5858 5858 5858
	0x0050:  5858 5858 5858 5858 5858 5858 5858 5858
	0x0060:  5858 5858 5858 5858 5858 5858 5858 5858
	0x0070:  5858 5858 5858 5858 5858 5858 5858 5858
	0x0080:  5858 5858 5858 5858 5858 5858 5858 5858
	0x0090:  5858 5858 5858 5858 5858 5858 5858 5858
11:42:06.682537 IP 190-0-175-100.gba.solunet.com.ar.2540 > 184.107.43.74.http: Flags [S], seq 1484037464:1484037584, win 512, length 120: HTTP
	0x0000:  4500 00a0 7d56 0000 4006 abe7 be00 af64
	0x0010:  b86b 2b4a 09ec 0050 5874 9d58 791f c48b
	0x0020:  5002 0200 69e7 0000 5858 5858 5858 5858
	0x0030:  5858 5858 5858 5858 5858 5858 5858 5858
	0x0040:  5858 5858 5858 5858 5858 5858 5858 5858
	0x0050:  5858 5858 5858 5858 5858 5858 5858 5858
	0x0060:  5858 5858 5858 5858 5858 5858 5858 5858
	0x0070:  5858 5858 5858 5858 5858 5858 5858 5858
	0x0080:  5858 5858 5858 5858 5858 5858 5858 5858
	0x0090:  5858 5858 5858 5858 5858 5858 5858 5858
11:42:06.682553 IP 190-0-175-100.gba.solunet.com.ar.2541 > 184.107.43.74.http: Flags [S], seq 566224598:566224718, win 512, length 120: HTTP
	0x0000:  4500 00a0 2256 0000 4006 06e8 be00 af64
	0x0010:  b86b 2b4a 09ed 0050 21bf e6d6 451e 6235
	0x0020:  5002 0200 ed74 0000 5858 5858 5858 5858
	0x0030:  5858 5858 5858 5858 5858 5858 5858 5858
	0x0040:  5858 5858 5858 5858 5858 5858 5858 5858
	0x0050:  5858 5858 5858 5858 5858 5858 5858 5858
	0x0060:  5858 5858 5858 5858 5858 5858 5858 5858
	0x0070:  5858 5858 5858 5858 5858 5858 5858 5858
	0x0080:  5858 5858 5858 5858 5858 5858 5858 5858
	0x0090:  5858 5858 5858 5858 5858 5858 5858 5858
11:42:06.682570 IP 190-0-175-100.gba.solunet.com.ar.2542 > 184.107.43.74.http: Flags [S], seq 788308167:788308287, win 512, length 120: HTTP
	0x0000:  4500 00a0 03ac 0000 4006 2592 be00 af64
	0x0010:  b86b 2b4a 09ee 0050 2efc a0c7 65e5 cd4b
	0x0020:  5002 0200 9a68 0000 5858 5858 5858 5858
	0x0030:  5858 5858 5858 5858 5858 5858 5858 5858
	0x0040:  5858 5858 5858 5858 5858 5858 5858 5858
	0x0050:  5858 5858 5858 5858 5858 5858 5858 5858
	0x0060:  5858 5858 5858 5858 5858 5858 5858 5858
	0x0070:  5858 5858 5858 5858 5858 5858 5858 5858
	0x0080:  5858 5858 5858 5858 5858 5858 5858 5858
	0x0090:  5858 5858 5858 5858 5858 5858 5858 5858
11:42:06.682586 IP 190-0-175-100.gba.solunet.com.ar.2543 > 184.107.43.74.http: Flags [S], seq 96067834:96067954, win 512, length 120: HTTP
	0x0000:  4500 00a0 ca6d 0000 4006 5ed0 be00 af64
	0x0010:  b86b 2b4a 09ef 0050 05b9 e0fa 2806 0744
	0x0020:  5002 0200 875e 0000 5858 5858 5858 5858
	0x0030:  5858 5858 5858 5858 5858 5858 5858 5858
	0x0040:  5858 5858 5858 5858 5858 5858 5858 5858
	0x0050:  5858 5858 5858 5858 5858 5858 5858 5858
	0x0060:  5858 5858 5858 5858 5858 5858 5858 5858
	0x0070:  5858 5858 5858 5858 5858 5858 5858 5858
	0x0080:  5858 5858 5858 5858 5858 5858 5858 5858
	0x0090:  5858 5858 5858 5858 5858 5858 5858 5858
11:42:06.682602 IP 190-0-175-100.gba.solunet.com.ar.2544 > 184.107.43.74.http: Flags [S], seq 1226579504:1226579624, win 512, length 120: HTTP
	0x0000:  4500 00a0 7308 0000 4006 b635 be00 af64
	0x0010:  b86b 2b4a 09f0 0050 491c 1e30 748c 19f0
	0x0020:  5002 0200 a792 0000 5858 5858 5858 5858
	0x0030:  5858 5858 5858 5858 5858 5858 5858 5858
	0x0040:  5858 5858 5858 5858 5858 5858 5858 5858
	0x0050:  5858 5858 5858 5858 5858 5858 5858 5858
	0x0060:  5858 5858 5858 5858 5858 5858 5858 5858
	0x0070:  5858 5858 5858 5858 5858 5858 5858 5858
	0x0080:  5858 5858 5858 5858 5858 5858 5858 5858
	0x0090:  5858 5858 5858 5858 5858 5858 5858 5858
11:42:06.682619 IP 190-0-175-100.gba.solunet.com.ar.2545 > 184.107.43.74.http: Flags [S], seq 1551737466:1551737586, win 512, length 120: HTTP
	0x0000:  4500 00a0 4153 0000 4006 e7ea be00 af64
	0x0010:  b86b 2b4a 09f1 0050 5c7d a27a 19b0 842b
	0x0020:  5002 0200 0087 0000 5858 5858 5858 5858
	
